:100000000C9434000C94B3000C9451000C945100E7
:100010000C9451000C9451000C9451000C94A600C7
:100020000C9451000C9451000C9451000C949500C8
:100030000C9451000C9451000C9451000C945100FC
:100040000C9451000C9451000C9419010C94510023
:100050000C9451000C947F000C9451000C945100AE
:100060000C9451000C94510011241FBECFEFD8E026
:10007000DEBFCDBF11E0A0E0B1E0E4EFF2E002C0EE
:1000800005900D92A230B107D9F721E0A2E0B1E0CE
:1000900001C01D92A830B207E1F70E9429010C941B
:1000A00078010C9400009093C5008093C40088E907
:1000B0008093C10086E08093C200089510927C0076
:1000C0008FEE80937A0082E080937E000895809185
:1000D000000190910101823523E0920710F08EE338
:1000E0000CC0853023E0920710F08EE106C08A36FE
:1000F000924010F086E001C082E088B908951F9216
:100100000F920FB60F9211248F939F9380917800D6
:100110009091790090930101809300019F918F91BC
:100120000F900FBE0F901F9018951F920F920FB651
:100130000F9211248F9381E08093B10082E085B902
:100140008F910F900FBE0F901F9018951F920F92D6
:100150000FB60F92112415B81092B1000F900FBE78
:100160000F901F9018951F920F920FB60F921124A7
:100170002F933F938F939F9380910401811112C01D
:100180008FEF80930401809184009091850090937B
:10019000070180930601109285001092840010924E
:1001A0006F003EC08F3FE1F5109204018091840002
:1001B00090918500909303018093020182E08093E7
:1001C0006F0080910201909103018F3F910509F02A
:1001D000A0F481E085B98091840090918500209100
:1001E000060130910701820F931F909307018093BE
:1001F000060182E48093050113C015B820918400A4
:10020000309185008091060190910701820F931F24
:10021000909307018093060190938500809384005A
:100220009F918F913F912F910F900FBE0F901F9034
:1002300018951F920F920FB60F9211248F938091F1
:10024000C600809305018F910F900FBE0F901F90F5
:10025000189581E0809369008DBB93E094BD109266
:1002600080008BE08093810082E080936F0028E91A
:100270003AE330938900209388008093B000109275
:10028000B1008093700080EA8093B30080E48AB963
:1002900094B98EEF87B987E690E00E94530081E41D
:1002A0008093050178942CED39EB9FEF43E85AE5F4
:1002B00061E073E0E6E980910501833499F038F458
:1002C000813461F08234C9F774BD15BCF4CF853434
:1002D00069F050F0863489F797BDEDCF44BD57BD26
:1002E00065BDE9CFE7BDE7CF37BDE5CF27BDE3CF9C
:0402F000F894FFCFB0
:0202F400FFFF0A
:00000001FF
