:100000000C9434000C9451000C9451000C94510049
:100010000C9451000C9451000C9451000C9451001C
:100020000C9451000C9451000C9451000C9451000C
:100030000C9451000C9451000C9451000C945100FC
:100040000C9451000C9451000C9439010C94510003
:100050000C9451000C9451000C9451000C945100DC
:100060000C9451000C94510011241FBECFEFD8E026
:10007000DEBFCDBF11E0A0E0B1E0E0E1F3E002C0FF
:1000800005900D92AC30B107D9F721E0ACE0B1E0BA
:1000900001C01D92A031B207E1F70E944C010C94FF
:1000A00086010C9400008AB1886D8AB983E084BD12
:1000B00008950895519A50981092C50087E680934C
:1000C000C40088E98093C10086E08093C20008954F
:1000D0009091C00095FFFCCF8093C6008091C00036
:1000E00086FFFCCF08950F931F93CF93DF93EC010E
:1000F0008C010C591F4F89910E946800C017D107CD
:10010000D1F7DF91CF911F910F91089595B1282FCD
:1001100022952F70907F922B95B92C982D9A95E06F
:100120009A95F1F700002D98EFE8F1E03197F1F79B
:1001300000C0000095B18F70907F892B85B92D9AF2
:10014000F5E0FA95F1F700002D988FE39FE1019714
:10015000F1F700C00000089595B1282F22952F7067
:10016000907F922B95B92C9A2D9A95E09A95F1F75C
:1001700000002D98EFE8F1E03197F1F700C00000A2
:1001800095B18F70907F892B85B92D9AF5E0FA95FE
:10019000F1F700002D988FE39FE10197F1F700C080
:1001A000000008958FEF84B92FEF89EF90E0215080
:1001B00080409040E1F700C0000082E00E9486008D
:1001C00088E20E9486008CE00E94860081E00E9406
:1001D000860082E80C948600CF93DF93EC0189912E
:1001E000882319F00E94AC00FACFDF91CF910895D7
:1001F000CF93DF93EA01813021F4862F8F708068DE
:1002000005C0823029F4862F8F70806C0E94860092
:10021000CE01DF91CF910C94EC0081E00E9486002A
:100220008FED9EE20197F1F700C0000080E80C948A
:10023000860008953D983C9A82E08093680090E2A1
:1002400090936C00109280009BE0909381008093CB
:100250006F0028E93AE33093890020938800809367
:10026000B0001092B1008093700080EA8093B300D8
:1002700008951F920F920FB60F9211248F938091C1
:10028000C60080930E0182E680930F018F910F903C
:100290000FBE0F901F9018950E941A010E945A00DD
:1002A0000E94D2000E94530081E680930F0178944F
:1002B000C1E680910F01823629F08336C9F410928D
:1002C0000C0114C090910E0197FF04C080E00E94C1
:1002D00068000CC010920C0181E0911101C080E017
:1002E00090910D019C7F892B80930D01C0930F018C
:1002F0000E940D0180E091E00E94EC0080E80E94E5
:10030000860088E091E00E94EC00D3CFF894FFCF04
:0C03100045737461646F3A0058440000AB
:00000001FF
