:100000000C9434000C9451000C9451000C94510049
:100010000C9451000C9451000C9451000C9451001C
:100020000C9451000C9451000C9451000C9451000C
:100030000C9451000C9451000C9451000C945100FC
:100040000C9451000C9451000C94AD010C9451008F
:100050000C9451000C9451000C9451000C945100DC
:100060000C9451000C94510011241FBECFEFD8E026
:10007000DEBFCDBF11E0A0E0B1E0E4E8F3E002C0F4
:1000800005900D92AE31B107D9F711E0AEE1B1E0C4
:1000900001C01D92A232B107E1F70E945E010C94EB
:1000A000C0010C9400008AB1886D8AB983E084BDD8
:1000B0000895FC018181837090E08130910591F079
:1000C000823091051CF4892B39F008958230910516
:1000D00079F00397D1F413C08BB188648BB98BB1DD
:1000E0008F760BC08BB180698BB98BB1877B05C0D4
:1000F0008BB188688BB98BB18F7A8BB908958BB12E
:1001000080658BB98BB187778BB90895519A5098D8
:100110001092C50087E68093C40088E98093C100EF
:1001200086E08093C2000895982F8091C00085FFDB
:10013000FCCF9093C6008091C00086FFFCCF08954D
:100140000F931F93CF93DF938C01C0E0D0E0F801B1
:10015000EC0FFD1F80810E9494002196C436D105CA
:10016000B1F7DF91CF911F910F91089595B1282F8D
:1001700022952F70907F292B25B92C982D9A25E058
:10018000922F9A95F1F72D98E0E9F1E03197F1F788
:1001900095B18F70907F982B95B92D9A2A95F1F78C
:1001A0002D9880E49FE10197F1F7089595B1282FEC
:1001B00022952F70907F292B25B92C9A2D9A25E016
:1001C000922F9A95F1F72D98E0E9F1E03197F1F748
:1001D00095B18F70907F982B95B92D9A2A95F1F74C
:1001E0002D9880E49FE10197F1F708958FEF84B98E
:1001F00088EC90E020E931E0F9013197F1F70197BF
:10020000D9F782E00E94B60088E20E94B6008CE036
:100210000E94B60081E00E94B60082E80E94B6000B
:100220000895CF93DF93EC0102C00E94D60089911C
:100230008823D9F7DF91CF910895CF93DF93EA0117
:10024000882321F46F70862F806805C0813029F4DF
:100250006F70862F806C0E94B600CE010E94110143
:10026000DF91CF91089581E00E94B60080EE9EE27A
:100270000197F1F780E80E94B600089508953D982F
:100280003C9A22E02093680080E280936C001092F8
:1002900080008BE08093810020936F0088E99AE3CF
:1002A00090938900809388002093B0001092B10051
:1002B0002093700080EA8093B30008950F931F93FA
:1002C0000E9486000E94F6008AB1886D8AB983E098
:1002D00084BD80E060E040E051E00E941D0181E0CB
:1002E00060E041E151E00E941D0180E197E220E9D8
:1002F00031E0F9013197F1F70197D9F781E6809361
:100300002101789411E601E080912101823649F0C3
:100310008336F1F08136D1F78EE191E00E945900E9
:10032000F3CF9091200197FF05C080911E010E949C
:10033000940010C010921E01992311F000931E0129
:10034000937080911F018C7F892B80931F0102C0C5
:1003500010921E0110932101D7CF1F920F920FB65A
:100360000F9211248F938091C6008093200182E622
:10037000809321018F910F900FBE0F901F901895C1
:04038000F894FFCF1F
:10038400486F6C612046757475726F2020202020A0
:0E03940000457374756469616E74653A2000EB
:00000001FF
