:100000000C9434000C9451000C9451000C94510049
:100010000C9451000C9451000C9451000C9451001C
:100020000C9451000C9451000C9451000C9451000C
:100030000C9451000C9451000C9451000C945100FC
:100040000C9451000C9451000C9451000C945100EC
:100050000C9451000C9451000C9451000C945100DC
:100060000C9451000C94510011241FBECFEFD8E026
:10007000DEBFCDBF11E0A0E0B1E0E0EBF2E002C0F6
:1000800005900D92AC30B107D9F721E0ACE0B1E0BA
:1000900001C01D92A031B207E1F70E941E010C942D
:1000A00056010C9400008AB1886D8AB908950895AC
:1000B000519A50989093C5008093C40088E980932A
:1000C000C10086E08093C200089508959BB1282F57
:1000D000207F9F70922B9BB95A985B9A35E03A9596
:1000E000F1F700005B98EFE8F1E03197F1F700C01D
:1000F00000002BB1F0E18F9FC0011124922F9F705F
:10010000892B8BB95B9A35E03A95F1F700005B9843
:100110008FE39FE10197F1F700C0000008959BB1C4
:10012000282F207F9F70922B9BB95A9A5B9A35E0BB
:100130003A95F1F700005B98EFE8F1E03197F1F7BD
:1001400000C000002BB1F0E18F9FC0011124922F5D
:100150009F70892B8BB95B9A35E03A95F1F70000D7
:100160005B988FE39FE10197F1F700C000000895CD
:100170008FEF8AB92FEF89EF90E0215080409040B7
:10018000E1F700C0000082E00E94660088E20E9461
:1001900066008CE00E94660081E00E94660082E8B2
:1001A0000C946600CF93DF93EC018991882319F0BA
:1001B0000E948F00FACFDF91CF910895CF93DF9304
:1001C000EA01813021F4862F8F70806805C082306B
:1001D00029F4862F8F70806C0E946600CE01DF911B
:1001E000CF910C94D20081E00E9466008FED9EE2D8
:1001F0000197F1F700C0000080E80C9466000895B4
:1002000081E0809369008DBB83E084BD1092800003
:100210008BE08093810082E080936F0028E93AE3CD
:1002200030938900209388008093B0001092B10031
:100230008093700080EA8093B30008950E940001CB
:1002400087E690E00E9458000E94B8000E94530088
:10025000789481E680930F01C1E680910F01823688
:1002600029F08336A9F410920C0110C090910E0170
:1002700097FD0CC010920C0181E0911101C080E04B
:1002800090910D019C7F892B80930D01C0930F01EC
:100290000E94F30080E091E00E94D20080E80E947A
:1002A000660088E091E00E94D200D7CFF894FFCF9B
:0C02B00045737461646F3A00584400000C
:00000001FF
