:100000000C9434000C9451000C9451000C94510049
:100010000C941B020C9451000C9451000C94510050
:100020000C9451000C9451000C9451000C94E2017A
:100030000C9451000C9451000C9498000C945100B5
:100040000C9451000C9451000C9408020C94510033
:100050000C9451000C9451000C9451000C945100DC
:100060000C9451000C94510011241FBECFEFD8E026
:10007000DEBFCDBF11E0A0E0B1E0E0E9F9E002C0F1
:1000800005900D92A632B107D9F721E0A6E2B1E0C2
:1000900001C01D92A833B207E1F70E9479020C94C7
:1000A000C6040C9400008AB1886D8AB984B5826058
:1000B00084BD85B5836085BD82E080936E00EBE2F0
:1000C000F1E086E0838387E0858383E0848384E0B6
:1000D000868382E390E0918380830895FC018FE919
:1000E0009FE00197F1F700C00000208131818281FB
:1000F000232B11F0843019F41092010103C09FEFFB
:1001000090930101813031F028F0823019F0833072
:1001100039F0089586E0838387E0858383E004C017
:1001200096E0938397E09583848384E086830895A3
:100130001F920F920FB60F9211242F933F934F935C
:100140005F936F937F938F939F93AF93BF938091B0
:10015000010150912E0140913001882391F180914D
:10016000270120912B0130912C018823E1F0C90156
:10017000A0E0B0E032E0B595A795979587953A95C0
:10018000D1F787BD6BB181E090E09C0101C0220FE7
:100190005A95EAF7262B2BB92BB101C0880F4A9547
:1001A000EAF7822B21C084E690E0821B930BA0E04B
:1001B000B0E022E0B595A795979587952A95D1F758
:1001C00087BD3BB181E090E0BC0101C0660F5A954C
:1001D000EAF7262F209523232BB92BB101C0880FD6
:1001E0004A95EAF7809582238BB980912701809503
:1001F00080932701BF91AF919F918F917F916F91D4
:100200005F914F913F912F910F900FBE0F901F90D4
:100210001895519A50981092C50087E68093C400B3
:1002200088E98093C10086E08093C2000895909190
:10023000C00095FFFCCF8093C6008091C00086FF70
:10024000FCCF08950F931F93CF93DF93EC018C01A4
:100250000C591F4F89910E941701C017D107D1F780
:10026000DF91CF911F910F91089595B1282F22957D
:100270002F70907F922B95B92C982D9A95E09A9596
:10028000F1F700002D98EFE8F1E03197F1F700C0A9
:10029000000095B18F70907F892B85B92D9AF5E07C
:1002A000FA95F1F700002D988FE39FE10197F1F7A0
:1002B00000C00000089595B1282F22952F70907FDF
:1002C000922B95B92C9A2D9A95E09A95F1F700000A
:1002D0002D98EFE8F1E03197F1F700C0000095B1FB
:1002E0008F70907F892B85B92D9AF5E0FA95F1F7FB
:1002F00000002D988FE39FE10197F1F700C0000007
:1003000008958FEF84B92FEF89EF90E0215080405E
:100310009040E1F700C0000082E00E94350188E2D1
:100320000E9435018CE00E94350181E00E94350178
:1003300082E80C943501CF93DF93EC0189918823F7
:1003400019F00E945B01FACFDF91CF910895CF930E
:10035000DF93EA01811104C0862F8F70806805C089
:10036000813029F4862F8F70806C0E943501CE0178
:10037000DF91CF910C949B0181E00E9435018FEDBC
:100380009EE20197F1F700C0000080E80C9435016F
:1003900008953C9A3D98209A1092800088E99AE34B
:1003A0009093890080938800E1E8F0E080818B6081
:1003B000808382E080936F008093680080E2809366
:1003C0006C0008951F920F920FB60F9211248F9315
:1003D0009F9380912601882341F082E090E09093E2
:1003E000890080938800449A07C088E99AE3909333
:1003F000890080938800449880912601809580939D
:1004000026019F918F910F900FBE0F901F9018950E
:100410001F920F920FB60F9211248F938091C600F6
:100420008093360182E6809337018F910F900FBE43
:100430000F901F9018951F920F920FB60F921124D4
:100440002F933F934F935F936F937F938F939F93DC
:10045000AF93BF93EF93FF9380910001882379F0CE
:1004600080918400909185009093290180932801C8
:10047000109285001092840010926F0016C0609157
:1004800084007091850080E090E00E94CB0360932F
:10049000320170933301809334019093350182E0EF
:1004A00080936F0083E68093370180918400909160
:1004B00085002091280130912901820F931F90938C
:1004C000290180932801809100018095809300018B
:1004D000FF91EF91BF91AF919F918F917F916F911C
:1004E0005F914F913F912F910F900FBE0F901F90F2
:1004F000189581E084B90E94C9010E9409010E94F7
:1005000081010E94BC010E94530080E80E943501D5
:1005100084E091E00E949B0180EC0E94350185E11E
:1005200091E00E949B012FEF83ED90E321508040EA
:100530009040E1F700C0000081E68093370182E33C
:1005400090E090932C0180932B017894C1E6D2E047
:1005500084E0B82E93E0A92E992493940EE110E044
:100560002CE3E22EF12C3AE5C32ED12C25E02A957E
:10057000F1F7000080913701823649F0833681F12E
:100580008136A1F78BE291E00E946E00EFCF80915F
:1005900036018336E1F040F48136B1F0823609F05D
:1005A00056C090922D0153C08536B9F098F086362A
:1005B00009F04DC085E30E94170185E30E941701F1
:1005C0008AE00E94170143C010922D0140C0D093D1
:1005D0002D013DC0A0922D013AC0B0922D0137C02F
:1005E00020E034E244E758E4609132017091330135
:1005F00080913401909135010E942A0320E030ED72
:1006000044E057E40E94590420E030E040E05FE31A
:100610000E9459040E949C036F3128F0D0922C0153
:10062000C0922B0106C0653130F0F0922C01E092AF
:100630002B0128980CC06B3028F010932C010093EC
:100640002B01F7CF10922C0110922B01289AC09306
:1006500037018CCF0E943E030C941F040E941804A3
:1006600058F00E94110440F029F45F3F29F00C94E7
:10067000080451110C9453040C940E040E9430048D
:1006800068F39923B1F3552391F3951B550BBB27C1
:10069000AA2762177307840738F09F5F5F4F220F06
:1006A000331F441FAA1FA9F335D00E2E3AF0E0E8FD
:1006B00032D091505040E695001CCAF72BD0FE2F47
:1006C00029D0660F771F881FBB1F261737074807DB
:1006D000AB07B0E809F0BB0B802DBF01FF27935893
:1006E0005F4F3AF09E3F510578F00C9408040C944B
:1006F00053045F3FE4F3983ED4F38695779567956E
:10070000B795F7959F5FC9F7880F911D96958795C7
:1007100097F90895E1E0660F771F881FBB1F6217E6
:1007200073078407BA0720F0621B730B840BBA0BA4
:10073000EE1F88F7E09508950E94380488F09F57CF
:1007400098F0B92F9927B751B0F0E1F0660F771FF5
:10075000881F991F1AF0BA95C9F714C0B13091F0EB
:100760000E945204B1E008950C945204672F782F30
:100770008827B85F39F0B93FCCF3869577956795B0
:10078000B395D9F73EF490958095709561957F4F1C
:100790008F4F9F4F0895E89409C097FB3EF49095C2
:1007A0008095709561957F4F8F4F9F4F9923A9F04A
:1007B000F92F96E9BB279395F695879577956795D9
:1007C000B795F111F8CFFAF4BB0F11F460FF1BC01D
:1007D0006F5F7F4F8F4F9F4F16C0882311F096E9B0
:1007E00011C0772321F09EE8872F762F05C066235E
:1007F00071F096E8862F70E060E02AF09A95660F17
:10080000771F881FDAF7880F9695879597F90895CF
:1008100097F99F6780E870E060E008959FEF80ECB3
:10082000089500240A941616170618060906089556
:1008300000240A9412161306140605060895092EBC
:100840000394000C11F4882352F0BB0F40F4BF2B2B
:1008500011F460FF04C06F5F7F4F8F4F9F4F08956B
:1008600057FD9058440F551F59F05F3F71F0479561
:10087000880F97FB991F61F09F3F79F08795089546
:10088000121613061406551FF2CF4695F1DF08C065
:10089000161617061806991FF1CF86957105610582
:1008A00008940895E894BB2766277727CB0197F92A
:1008B00008950E946C040C941F040E94110438F0E7
:1008C0000E94180420F0952311F00C9408040C9455
:1008D0000E0411240C9453040E94300470F3959F6D
:1008E000C1F3950F50E0551F629FF001729FBB2727
:1008F000F00DB11D639FAA27F00DB11DAA1F649FC3
:100900006627B00DA11D661F829F2227B00DA11D75
:10091000621F739FB00DA11D621F839FA00D611DFB
:10092000221F749F3327A00D611D231F849F600D1C
:10093000211D822F762F6A2F11249F5750409AF045
:10094000F1F088234AF0EE0FFF1FBB1F661F771FD1
:10095000881F91505040A9F79E3F510580F00C949C
:1009600008040C9453045F3FE4F3983ED4F3869557
:1009700077956795B795F795E7959F5FC1F7FE2B3C
:10098000880F911D9695879597F90895F894FFCF54
:10099000FFFF32004269656E76656E69646F732091
:1009A0006120202000555445432020202020202075
:0609B000202020202000A1
:00000001FF
