:100000000C9434000C9451000C9451000C94510049
:100010000C9451000C9451000C9451000C9451001C
:100020000C9451000C9451000C9451000C9451000C
:100030000C9451000C9451000C946F000C945100DE
:100040000C9451000C9451000C94BB010C94510081
:100050000C9451000C9451000C9451000C945100DC
:100060000C9451000C94510011241FBECFEFD8E026
:10007000DEBFCDBF11E0A0E0B1E0E6E3F4E002C0F6
:1000800005900D92A032B107D9F721E0A0E2B1E0CE
:1000900001C01D92AA32B207E1F70E94CE010C9472
:1000A00019020C9400008AB1886D8AB984B5826007
:1000B00084BD85B5836085BD82E080936E00E1E2FA
:1000C000F1E086E0838387E0858383E0848384E0B6
:1000D000868382E390E091838083089508951F9240
:1000E0000F920FB60F9211242F933F934F935F936C
:1000F0006F937F938F939F93AF93BF9380912001D2
:10010000209121013091220150912401409126013A
:100110008823E1F0C901A0E0B0E032E0B595A795F1
:10012000979587953A95D1F787BD6BB181E090E0BF
:100130009C0101C0220F5A95EAF7262B2BB92BB14F
:1001400001C0880F4A95EAF7822B21C084E690E02F
:10015000821B930BA0E0B0E022E0B595A7959795A0
:1001600087952A95D1F787BD3BB181E090E0BC012E
:1001700001C0660F5A95EAF7262F209523232BB945
:100180002BB101C0880F4A95EAF7809582238BB97D
:1001900080912001809580932001BF91AF919F9124
:1001A0008F917F916F915F914F913F912F910F9020
:1001B0000FBE0F901F901895519A50981092C5003D
:1001C00087E68093C40088E98093C10086E080932D
:1001D000C20008959091C00095FFFCCF8093C600A7
:1001E0008091C00086FFFCCF08950F931F93CF939B
:1001F000DF93EC018C010C591F4F89910E94EA009A
:10020000C017D107D1F7DF91CF911F910F910895BA
:1002100095B1282F22952F70907F922B95B92C980D
:100220002D9A95E09A95F1F700002D98EFE8F1E00E
:100230003197F1F700C0000095B18F70907F892B46
:1002400085B92D9AF5E0FA95F1F700002D988FE326
:100250009FE10197F1F700C00000089595B1282FA4
:1002600022952F70907F922B95B92C9A2D9A95E01C
:100270009A95F1F700002D98EFE8F1E03197F1F74A
:1002800000C0000095B18F70907F892B85B92D9AA1
:10029000F5E0FA95F1F700002D988FE39FE10197C3
:1002A000F1F700C0000008958FEF84B92FEF89EFB8
:1002B00090E0215080409040E1F700C0000082E0D3
:1002C0000E94080188E20E9408018CE00E94080157
:1002D00081E00E94080182E80C940801CF93DF932B
:1002E000EC018991882319F00E942E01FACFDF9149
:1002F000CF910895CF93DF93EA01811104C0862F37
:100300008F70806805C0813029F4862F8F70806CD3
:100310000E940801CE01DF91CF910C946E0181E023
:100320000E9408018FED9EE20197F1F700C00000E6
:1003300080E80C94080108953D983C9A82E08093EF
:10034000680090E290936C00109280009BE0909384
:10035000810080936F0028E93AE33093890020936D
:1003600088008093B0001092B1008093700080EA02
:100370008093B30008951F920F920FB60F9211242D
:100380008F938091C6008093280182E68093290193
:100390008F910F900FBE0F901F90189581E084B938
:1003A0000E94DC000E9454010E94530080E80E94D9
:1003B000080182E091E00E946E0180EC0E94080139
:1003C00083E191E00E946E012FEF83ED90E32150D5
:1003D00080409040E1F700C0000081E68093290151
:1003E00082E390E090932201809321017894C1E60A
:1003F00025E02A95F1F7000080912901823619F055
:100400008336A1F0F5CF8091280187FF05C0809148
:1004100021010E94EA000AC0982F93709093230153
:100420008C7790E09093220180932101C093290161
:06043000DFCFF894FFCFBE
:100436003200486F6C612046757475726F202020FB
:10044600202000457374756469616E74653A2000F6
:00000001FF
